:020000040800F2
:10000000F0430020ED130008F1130008F31300087B
:10001000F5130008F7130008F9130008FB13000894
:10002000FB130008FB130008FB130008FB13000878
:10003000FB130008FB130008BBB50008AF4E000817
:100040000B0D0008150D00081F0D0008290D0008F4
:10005000330D00083D0D0008470D0008510D000844
:100060005B0D0008650D00086F0D0008790D000894
:10007000830D00088D0D0008970D0008A10D0008E4
:10008000AB0D0008B50D0008BF0D0008C90D000834
:10009000D30D0008DD0D0008E70D0008F10D000884
:1000A000FB0D0008050E00080F0E0008190E0008D1
:1000B000230E00082D0E0008370E0008410E000820
:1000C0004B0E0008550E00085F0E0008690E000870
:1000D000730E00087D0E0008870E0008910E0008C0
:1000E0009B0E0008A50E0008AF0E0008B90E000810
:1000F000C30E0008CD0E0008D70E0008E10E000860
:10010000EB0E0008F50E0008FF0E0008090F0008AE
:10011000130F00081D0F0008270F0008310F0008FB
:100120003B0F0008450F00084F0F0008590F00084B
:10013000630F00086D0F0008770F0008810F00089B
:100140008B0F0008950F00089F0F0008A90F0008EB
:10015000B30F0008BD0F0008C70F0008D10F00083B
:10016000DB0F0008E50F0008EF0F0008F90F00088B
:10017000031000080D1000081710000821100008D7
:100180002B10000800F002F800F090F80AA090E8A8
:10019000000C82448344AAF10107DA4501D100F042
:1001A00085F8AFF2090EBAE80F0013F0010F18BF7F
:1001B000FB1A43F0010318478CB90000ACB90000EA
:1001C000103A24BF78C878C1FAD8520724BF30C883
:1001D00030C144BF04680C60704700000023002455
:1001E00000250026103A28BF78C1FBD8520728BF47
:1001F00030C148BF0B6070476E2909F0D587702960
:100200000AF01D8166290BF0518265290BF04E82A0
:1002100067290BF04B826129AFF3008003681B0A4A
:1002200028BF41F08001692909F08487642909F019
:100230008187752909F07E876F290AF0AB807829BC
:100240000AF0E980E9290AF04780E4290AF04480AD
:10025000F5290AF04180EF290AF0A880F8290AF070
:10026000E8800368DB0928BF41F0800163290AF0B8
:10027000688473290AF06D84E3290AF07884F329ED
:100280000AF07D84002070471FB50AF0C9FC040005
:10029000002000210BF0F4F9401C606000200021D8
:1002A0000BF0D8F9E0601FBD10B510BD0AF08BFC53
:1002B0001146FFF7E9FF00F037F80AF061FD03B4DB
:1002C000FFF7F2FF03BC0AF0A5FD000070470EB572
:1002D000012417E02146641C25A000F07EFF601E6B
:1002E0000A21B0FBF1F201FB120010B922A000F0CC
:1002F00074FF02A800210B460122CDE90010084638
:1003000009F0CDF9E6E700F0BFF803F0DDFF02F0F9
:10031000B5FA00F0F0F84FF4E13000F0B7FE17A0A6
:1003200000F05BFFFFF7D3FF8AB000F084FC03F01E
:10033000CBFF09A804F05EFE09A803210022059264
:10034000CDE906210890104680210C22144BCDE9FE
:100350000132CDE9031002200023124A12A10090BD
:10036000154807F038FF09A805F00DF900BFFEE7B2
:1003700025336420000000000D0A200043726561EF
:1003800074696E67204170706C69636174696F6E27
:10039000204F626A656374732E2E2E200A0D0000B2
:1003A000AC01002007030008417070205461736B9A
:1003B0002053746172740000E80000201CB5FE49EF
:1003C0000868012101F0E4FDFC480088009001204C
:1003D0008DF8040000208DF8060001208DF807003C
:1003E00002208DF80500F6490868694601F08AFB8D
:1003F000F1494868012101F0CBFDF04840880090A8
:1004000001208DF8040000208DF8060001208DF8F1
:10041000070002208DF80500E9494868694601F0A7
:1004200071FBE5498868012101F0B2FDE34880884D
:10043000009001208DF8040000208DF806000120B6
:100440008DF8070002208DF80500DD4988686946AF
:1004500001F058FBD849C868012101F099FDD7483F
:10046000C088009001208DF8040000208DF806005F
:1004700001208DF8070002208DF80500D049C868DA
:10048000694601F03FFB1CBD10B5FFF797FF10BD9B
:1004900010B50121402001F08CFDCA48006840F0F1
:1004A0000800C84908600846006840F00400086079
:1004B00000BFC448001D006800F001000028F8D00B
:1004C000C04808300468BF48006820F00800BD49F3
:1004D00008600846006820F0040008600021402001
:1004E00001F067FD204610BD1FB5684601F0BBFC5A
:1004F000019804B010BD70B5FFF7F6FF0446B2488E
:100500000068B4FBF0F5284604F0EBFC70BD1CB5A8
:100510000121084601F05EFD01217A2001F038FD3D
:100520008020009002208DF804008DF80500002046
:100530008DF806008DF8070001208DF80700694648
:10054000A24801F0DFFA4FF6FB70009002208DF810
:1005500004008DF8050000208DF806008DF80700D6
:1005600001208DF807006946994801F0CBFA0C226A
:100570000021974801F051FB0C220121944801F021
:100580004CFB0C220321924801F047FB0C22042172
:100590008F4801F042FB0C2205218D4801F03DFB04
:1005A0000C2206218A4801F038FB0C2207218848DA
:1005B00001F033FB0C220821854801F02EFB0C22B0
:1005C0000921834801F029FB0C220A21804801F00F
:1005D00024FB0C220B217E4801F01FFB0C2211464C
:1005E0007B4801F01AFB0C220D21794801F015FB24
:1005F0000C220E21764801F010FB0C220F217448CA
:1006000001F00BFB4FF6FB7000906946714801F05A
:1006100079FA0C2200216F4801F0FFFA0C22012127
:100620006C4801F0FAFA0C2203216A4801F0F5FA4D
:100630000C220421674801F0F0FA0C2205216548DC
:1006400001F0EBFA0C220621624801F0E6FA0C22D6
:100650000721604801F0E1FA0C2208215D4801F011
:10066000DCFA0C2209215B4801F0D7FA0C220A219E
:10067000584801F0D2FA0C220B21564801F0CDFA6D
:100680000C221146534801F0C8FA0C220D215148A2
:1006900001F0C3FA0C220E214E4801F0BEFA0C22E2
:1006A0000F214C4801F0B9FA4FF23F000090694623
:1006B000494801F027FA0C220021474801F0ADFA21
:1006C0000C220121444801F0A8FA0C2202214248E0
:1006D00001F0A3FA0C2203213F4801F09EFA0C22FC
:1006E00004213D4801F099FA0C2205213A4801F015
:1006F00094FA0C221146384801F08FFA0C220D2191
:10070000354801F08AFA0C220E21334801F085FAAF
:100710000C220F21304801F080FA3F2000906946FA
:100720002E4801F0EFF90C2200212C4801F075FA57
:100730000C220121294801F070FA0C2202212748DD
:1007400001F06BFA0C220321244801F066FA0C2216
:100750000421224801F061FA0C2205211F4801F012
:100760005CFA4020009001208DF8040002208DF8F2
:10077000050000208DF806008DF807006946164830
:1007800001F0C0F94021144801F03AFA41F210009A
:100790004FF02041086045F21000086040F204402C
:1007A00048600F4908604FF02040006840F00100A9
:1007B0004FF0204108601CBDB8B60008B0B6000874
:1007C0000000002000080650BCB8000800040240E9
:1007D000000C0240001002400014024000180240C9
:1007E000040100A000B599B00121084601F0F2FB18
:1007F0000121782001F0CCFB4FF6337001900220EC
:100800008DF8080003208DF8090000208DF80A00FB
:100810008DF80B0001A9F74801F074F90C220021B2
:10082000F44801F0FAF90C220121F24801F0F5F93F
:100830000C220421EF4801F0F0F90C220521ED48CB
:1008400001F0EBF90C220821EA4801F0E6F90C224C
:100850000921E84801F0E1F90C220A21E54801F0FC
:10086000DCF90C220B21E34801F0D7F90C221146E8
:10087000E04801F0D2F90C220D21DE4801F0CDF95B
:100880000C220E21DB4801F0C8F90C220F21D948B7
:1008900001F0C3F94FF6FB70019001A9D64801F0B1
:1008A00031F90C220021D44801F0B7F90C220121C2
:1008B000D14801F0B2F90C220321CF4801F0ADF983
:1008C0000C220421CC4801F0A8F90C220521CA48C9
:1008D00001F0A3F90C220621C74801F09EF90C2271
:1008E0000721C54801F099F90C220821C24801F0FE
:1008F00094F90C220921C04801F08FF90C220A2139
:10090000BD4801F08AF90C220B21BB4801F085F9A2
:100910000C221146B84801F080F90C220D21B6488E
:1009200001F07BF90C220E21B34801F076F90C227C
:100930000F21B14801F071F94FF23F00019001A978
:10094000AE4801F0DFF80C220021AC4801F065F957
:100950000C220121A94801F060F90C220221A748CC
:1009600001F05BF90C220321A44801F056F90C2296
:100970000421A24801F051F90C2205219F4801F001
:100980004CF90C2211469D4801F047F90C220D212B
:100990009A4801F042F90C220E21984801F03DF9E5
:1009A0000C220F21954801F038F940F23F200190C8
:1009B00001A9934801F0A6F80C220021904801F00B
:1009C0002CF90C2201218E4801F027F90C2202217A
:1009D0008B4801F022F90C220321894801F01DF90E
:1009E0000C220421864801F018F90C2205218448C4
:1009F00001F013F90C220921814801F00EF90020C1
:100A00000390049004200590012006900020079098
:100A10000890099003A81790189002200A900020CF
:100A20000B900C9010200D9000200F904FF4804000
:100A300015908010139000200E901090119012903D
:100A4000149016900AA800F006FD0121022000F083
:100A5000AEFD19B000BD10B50446002C08DC694A93
:100A6000128802EA0501684A106801F0C7F810BD53
:100A7000601E644931F81010634A52F82000018367
:100A800000BFF4E710B50446002C08DC5D4A12886C
:100A900022EA05015C4A106801F0B2F810BD601E40
:100AA000584931F81010584A52F82000418300BFCD
:100AB000F4E770B50546002D60DC5349086801F085
:100AC00099F804464F48008844404E4A128802EA8A
:100AD00004014D4A106801F091F84A4A128822EA4E
:100AE0000401494A106801F08BF84749486801F051
:100AF00081F80446434840884440424A528802EA0A
:100B00000401414A506801F079F83E4A528822EACD
:100B100004013D4A506801F073F83B49886801F0D0
:100B200069F80446374880884440364A928802EA89
:100B30000401354A906801F061F8324A928822EA4D
:100B40000401314A906801F05BF82F49C86801F050
:100B500051F804462B48C08844402A4AD28802EA09
:100B60000401294AD06801F049F8264AD28822EACD
:100B70000401254AD06801F043F870BD691E224A7D
:100B800052F8210001F036F80446681E1D4931F87C
:100B9000100044406A1E0B4633F8122002EA04019A
:100BA0006A1E194B53F8220001F028F86A1E154BF3
:100BB00033F8122022EA04016A1E134B53F8220074
:100BC00001F01EF800BFD8E710B51048006840F0EB
:100BD00080700E49086000200D4948600846006892
:100BE00040F001000860FFF77FFC0446204603F058
:100BF000DCFB10BD000C024000100240001402405B
:100C000000180240B0B6000800000020FCED00E033
:100C1000001000E00148406870470000001000E04C
:100C2000704710B50446512C04D204F11001C8B22B
:100C300003F0D4FC10BD10B503F07CFC10BD10B562
:100C40000446512C04D204F11001C8B203F06AFD2D
:100C500010BD70B504460D460026512C10D200BFC1
:100C600000BF03F06BFC064600BF00BFF14840F830
:100C7000245000BF00BF304603F064FC00BF00BF3B
:100C800070BD70B504460D460026512C13D200BF2E
:100C900000BF03F053FC064600BF00BF04F1100183
:100CA000C8B2294603F034FE00BF00BF304603F04F
:100CB00049FC00BF00BF70BD704710B5002404E0C0
:100CC000DD492046FFF7C5FF641C512CF8D310BD49
:100CD00070B50446002600BF00BF03F02FFC064697
:100CE00000BF00BF04F016FA00BF00BF304603F09B
:100CF00029FC00BF00BF512C04D2CE4850F824502C
:100D000005B1A84704F017FA70BD10B50020FFF731
:100D1000DFFF10BD10B50120FFF7DAFF10BD10B5E1
:100D20000220FFF7D5FF10BD10B50320FFF7D0FF5D
:100D300010BD10B50420FFF7CBFF10BD10B5052086
:100D4000FFF7C6FF10BD10B50620FFF7C1FF10BDAD
:100D500010B50720FFF7BCFF10BD10B50820FFF746
:100D6000B7FF10BD10B50920FFF7B2FF10BD10B5D9
:100D70000A20FFF7ADFF10BD10B50B20FFF7A8FF4D
:100D800010BD10B50C20FFF7A3FF10BD10B50D204E
:100D9000FFF79EFF10BD10B50E20FFF799FF10BDA5
:100DA00010B50F20FFF794FF10BD10B51020FFF70E
:100DB0008FFF10BD10B51120FFF78AFF10BD10B5D1
:100DC0001220FFF785FF10BD10B51320FFF780FF3D
:100DD00010BD10B51420FFF77BFF10BD10B5152016
:100DE000FFF776FF10BD10B51620FFF771FF10BD9D
:100DF00010B51720FFF76CFF10BD10B51820FFF7D6
:100E000067FF10BD10B51920FFF762FF10BD10B5C8
:100E10001A20FFF75DFF10BD10B51B20FFF758FF2C
:100E200010BD10B51C20FFF753FF10BD10B51D20DD
:100E3000FFF74EFF10BD10B51E20FFF749FF10BD94
:100E400010B51F20FFF744FF10BD10B52020FFF79D
:100E50003FFF10BD10B52120FFF73AFF10BD10B5C0
:100E60002220FFF735FF10BD10B52320FFF730FF1C
:100E700010BD10B52420FFF72BFF10BD10B52520A5
:100E8000FFF726FF10BD10B52620FFF721FF10BD8C
:100E900010B52720FFF71CFF10BD10B52820FFF765
:100EA00017FF10BD10B52920FFF712FF10BD10B5B8
:100EB0002A20FFF70DFF10BD10B52B20FFF708FF0C
:100EC00010BD10B52C20FFF703FF10BD10B52D206D
:100ED000FFF7FEFE10BD10B52E20FFF7F9FE10BD86
:100EE00010B52F20FFF7F4FE10BD10B53020FFF72E
:100EF000EFFE10BD10B53120FFF7EAFE10BD10B5B2
:100F00003220FFF7E5FE10BD10B53320FFF7E0FEFD
:100F100010BD10B53420FFF7DBFE10BD10B5352035
:100F2000FFF7D6FE10BD10B53620FFF7D1FE10BD7D
:100F300010B53720FFF7CCFE10BD10B53820FFF7F5
:100F4000C7FE10BD10B53920FFF7C2FE10BD10B5A9
:100F50003A20FFF7BDFE10BD10B53B20FFF7B8FEED
:100F600010BD10B53C20FFF7B3FE10BD10B53D20FD
:100F7000FFF7AEFE10BD10B53E20FFF7A9FE10BD75
:100F800010B53F20FFF7A4FE10BD10B54020FFF7BD
:100F90009FFE10BD10B54120FFF79AFE10BD10B5A1
:100FA0004220FFF795FE10BD10B54320FFF790FEDD
:100FB00010BD10B54420FFF78BFE10BD10B54520C5
:100FC000FFF786FE10BD10B54620FFF781FE10BD6D
:100FD00010B54720FFF77CFE10BD10B54820FFF785
:100FE00077FE10BD10B54920FFF772FE10BD10B599
:100FF0004A20FFF76DFE10BD10B54B20FFF768FECD
:1010000010BD10B54C20FFF763FE10BD10B54D208C
:10101000FFF75EFE10BD10B54E20FFF759FE10BD64
:1010200010B54F20FFF754FE10BD10B55020FFF74C
:101030004FFE10BDAC030020B90C000808B5AB484A
:10104000008800900098C0F3401060B1A74801F0FC
:10105000E2F9A749087040F22551A44801F0D4FAFA
:10106000A44800F091F90098C0F3C01068B10022C4
:1010700040F227719D4801F055FA40F227719B48D4
:1010800001F0C2FA9C4800F07FF908BD10B588B0A5
:1010900004469AA20021984800F04CF99BA2002136
:1010A000944800F047F99DA201219F4800F042F9C1
:1010B00002940020ADF80C00ADF80E00ADF8100061
:1010C000ADF814000C20ADF812000020ADF80000BF
:1010D000ADF802004FF40070ADF804000020ADF848
:1010E00006000121084600F053FF0121102000F006
:1010F00093FF4FF40070069002208DF81D008DF8CC
:101100001C0000208DF81E0001208DF81F0006A98C
:10111000864800F0F7FC07220921844800F07DFD95
:101120004FF48060069002208DF81C0006A97F48CD
:1011300000F0E8FC07220A217C4800F06EFD02A9BD
:101140006A4801F0B1F86946684801F01FF90121C9
:10115000664801F031F976492520FFF77AFD252010
:10116000FFF76DFD08B010BD10B5044621465F487D
:1011700001F04DF9012240F227715C4801F0D2F9EB
:101180000A215D4800F0E7F8002240F22771574835
:1011900001F0C8F910BD70B504460021624800F0A6
:1011A000DAF80546012D00D070BD0EE020780A283F
:1011B00007D10D20FFF7D8FF0A20FFF7D5FF641CE9
:1011C00003E014F8010BFFF7CFFF20780028EDD1E2
:1011D000554800F0D9F800BFE6E70FB400B597B066
:1011E00019A80190512102A8019B189A08F022FF2A
:1011F0000020019002A8FFF7CEFF17B05DF814FBA6
:1012000010B5012240F22551384801F08BF9002138
:10121000384800F0A0F8002240F22551334801F090
:1012200081F933480478204610BD10B500213E48AE
:1012300000F091F8FFF7E4FF04463B4800F0A4F803
:10124000204610BD2DE9F04106460F46002400203F
:1012500030700021344800F07EF88046B8F1010F6C
:1012600001D0BDE8F0812DE0FFF7CAFF05460D2D46
:1012700001D00A2D08D10A20FFF776FF0D20FFF7D5
:1012800073FF002030551EE0082D0ED1002C0CDD20
:101290000820FFF769FF2020FFF766FF0820FFF70F
:1012A00063FF601EC4B200203055284601F04FFA9B
:1012B00040B12846FFF758FF3555601CC4B2BC4208
:1012C00000DBFCB2D0E700BF174800F05DF800BFBC
:1012D000C7E710B504460021134800F03CF820464B
:1012E000FFF742FF104800F04FF810BD001001401A
:1012F0001000002018050020F004002053657269DA
:10130000616C2054782057616974000053657269DC
:10131000616C2052782057616974000053657269CE
:10132000616C204C6F636B004005002000000240A0
:101330003D100008F8B506460C4615466B46224699
:101340002946304606F0AFF8BDF8000008B100208D
:10135000F8BD0120FCE77CB505460C464FF47A70D9
:10136000604321490968B0FBF1F601A800231A4641
:1013700031460090284606F0D0F8BDF8040008B1C8
:1013800000207CBD0120FCE738B504466A460021F8
:10139000204606F0A4FABDF8000008B1002038BDD0
:1013A0000120FCE7FEB5044642F21070844200D9E9
:1013B0000446B4F57A7F0BD34FF47A70B4FBF0F0A7
:1013C00085B24FF47A70B4FBF0F100FB114601E0F6
:1013D000A5B2002602A800212B463246CDE9001016
:1013E000084608F05CF9FEBDBCB800080748004795
:1013F000FEE7FEE7FEE7FEE7FEE7FEE7FEE70000AA
:1014000003480449044A054B704700008501000861
:10141000F03D0020F0430020F03F0020F03F00208E
:1014200030B943F2DB028100A1F1C0410A6005E05E
:1014300043F2D2028100A1F1C0410A606FF0704214
:10144000411C8900A1F1C0410A608100A1F1C041A5
:10145000C1F804217047D0E901121143C268114359
:10146000026911434269114382691143C269114300
:10147000026A1143426A1143826A1143C26A1143EC
:10148000026B114302689200A2F1C04211608168B0
:1014900008290BD101688900A1F1C041096841F018
:1014A000400201688900A1F1C0410A60416B0968EE
:1014B000426B526841EA0211426B926841EA022192
:1014C000426B928941EA0241426B128A41EA02511F
:1014D000426B127D41EA0261426B926911430268DC
:1014E000521C9200A2F1C0421160C16AB1F5804F56
:1014F0001BD1816B0968826B526841EA0211826BD1
:10150000926841EA0221826B128A41EA0251826B9F
:10151000127D41EA0261826B926911430268920076
:10152000A2F1C042C2F8041107E06FF070420168F6
:101530008900A1F1C041C1F8042170470021016078
:101540000221416000218160C160016141618161CE
:10155000C16101624FF48051416249008162002102
:10156000C16201630F21426B1160426B5160FF2128
:10157000426B91600F21426BD160426B1161426BF3
:1015800051610021426B91610F21826B1160826B6E
:101590005160FF21826B91600F21826BD160826B61
:1015A0001161826B51610021826B9161704751B171
:1015B0008200A2F1C042126842F001038200A2F14F
:1015C000C042136009E08200A2F1C0421268F94BE8
:1015D0001A408300A3F1C0431A60704710280AD153
:1015E00018214FF020421166402151664FF0FC3126
:1015F0009166D16610E01821EF4A116040214FF04A
:101600002042C2F884104FF0FC31EB4A08321160DE
:101610004FF02042C2F88C10704730B500210022F4
:101620000023446844F0080485682C43C5682C43B3
:1016300005692C43456944EA4524856944EA4531F6
:10164000C4692468C5696D6844EA0524C5692D89A3
:1016500044EA0544C5692D7B44EA0562046A2468AE
:10166000056A6D6844EA0524056A2D8944EA054443
:10167000056A2D7B44EA05630468102C05D14FF000
:1016800020442166A266E36608E0CB4C21604FF05F
:101690002044C4F88820C84C0C34236030BD10218D
:1016A0000160002141608160C1600161416181612F
:1016B000FC21C2691160C2695160C2699160C2694E
:1016C000D160026A1160026A5160026A9160026A26
:1016D000D160704799B1102808D14FF02042126EA6
:1016E00042F004024FF020431A661DE0B24A12682D
:1016F00042F004024FF02043C3F8802014E0102889
:1017000009D14FF02042126EAA4BDB1E1A404FF057
:1017100020431A6608E0A84A1268A64BDB1E1A404E
:101720004FF02043C3F88020704799B1102808D1AA
:101730004FF02042126E42F040024FF020431A66F2
:101740001DE09D4A126842F040024FF02043C3F86A
:10175000802014E0102809D14FF02042126E954BE2
:101760003F3B1A404FF020431A6608E0924A126845
:10177000904B3F3B1A404FF02043C3F88020704706
:1017800001460020102903D14FF02042506F02E0A3
:10179000894A143210687047182087492031086040
:1017A00000200906C1F8A4004FF0FC30824928311E
:1017B0000860091D0860091D08607047016841F054
:1017C0001001426841EA4221826841EA42317A4A84
:1017D00020321160C1680968C268526841EA02217A
:1017E000C268128941EA0241C268127B41EA026181
:1017F000714A28321160016909680269526841EA38
:1018000002210269128941EA02410269127B41EA1E
:101810000261694A2C321160416909684269526863
:1018200041EA02214269128941EA02414269127B7E
:1018300041EA02614FF02042C2F8B0107047002127
:10184000016041608160FC21C2681160C268516022
:10185000C2689160C268D16002691160026951601A
:10186000026991600269D160426911604269516008
:10187000426991604269D160704748B14E49203158
:10188000096841F004014FF02042C2F8A01009E0BD
:10189000494920310968474AD21E11404FF0204281
:1018A000C2F8A010704710B5F2B1102807D14FF060
:1018B00020435B6E0B434FF02044636632E0B0F58B
:1018C000807F08D13C4B1B1D1B680B434FF020440D
:1018D000C4F8843026E0384B24331B680B434FF0A8
:1018E0002044C4F8A4301DE0102807D14FF0204355
:1018F0005B6E8B434FF02044636613E0B0F5807F4E
:1019000008D12D4B1B1D1B688B434FF02044C4F89E
:10191000843007E0284B24331B688B434FF020446E
:10192000C4F8A43010BD10B5024600200023102AD0
:1019300003D14FF02044636E09E0B2F5807F03D1FC
:101940001D4C241D236802E01B4C2434236803EA49
:1019500001040CB1012000E0002010BD102807D1C7
:101960004FF02042526E8A434FF020435A6613E0F4
:10197000B0F5807F08D1104A121D12688A434FF0DB
:101980002043C3F8842007E00B4A243212688A43BC
:101990004FF02043C3F8A420704770B502460020E2
:1019A000002300240025102A08D14FF02046736E32
:1019B0000DE00000FEFF0F00800000A0B2F5807F68
:1019C00002D1184E336802E0164E2036336803EA1F
:1019D000010403EAD10514B10DB1012000E000209B
:1019E00070BD102808D14FF02042526E22EAD10279
:1019F0004FF020435A6614E0B0F5807F08D1094AC1
:101A0000126822EAD1024FF02043C3F8842008E094
:101A1000044A2032126822EAD1024FF02043C3F870
:101A2000A4207047840000A010B504468C4884426E
:101A300008D10121084600F000FB0021012000F040
:101A4000FCFA5EE08748844208D10121022000F0C0
:101A5000F4FA0021022000F0F0FA52E082488442B9
:101A600008D10121042000F0E8FA0021042000F050
:101A7000E4FA46E07D48844208D10121082000F0C4
:101A8000DCFA0021082000F0D8FA3AE078488442D5
:101A900008D10121102000F0D0FA0021102000F020
:101AA000CCFA2EE07348844208D10121202000F0B6
:101AB000C4FA0021202000F0C0FA22E06E488442DF
:101AC00008D10121402000F0B8FA0021402000F0A8
:101AD000B4FA16E06948844208D10121802000F060
:101AE000ACFA0021802000F0A8FA0AE064488442A1
:101AF00007D10121801500F0A0FA0021A01500F007
:101B00009CFA10BDF0B50A4600210023002400BF56
:101B10003DE0012505FA01F3156805EA03049C423E
:101B200034D105684F000326BE40B54305601579E2
:101B30004E00B5400668354305601579012D02D089
:101B40001579022D16D185684F000326BE40B54396
:101B5000856055794E00B540866835438560456897
:101B600001268E40B5434560456896798E40B6B2F1
:101B700035434560C5684F000326BE40B543C56088
:101B8000D5794E00B540C6683543C560491C10295B
:101B9000BFD3F0BD4FF6FF710160002101714171AB
:101BA0008171C171704708B54FF480320092009A7C
:101BB0000A430092009AC261C161009AC261C2697F
:101BC0000092C269009208BD0246002013690B40D2
:101BD0000BB1012000E0002070470146086980B287
:101BE00070470246002053690B400BB1012000E012
:101BF000002070470146486980B2704701837047F2
:101C0000418370470AB1018300E04183704741611D
:101C1000704742694A4042617047F0B50023002492
:101C20004D07ED0E02FA05F3CE1000F1200555F830
:101C300026504E07F70E0F26BE40B543CF1000F1D9
:101C4000200646F82750CE1000F1200555F8265002
:101C500045EA0304CE1000F1200545F82640F0BD0A
:101C6000000002400004024000080240000C024054
:101C7000001002400014024000180240001C024004
:101C800000200240FA48006840F00100F84908606E
:101C90000020F74908310860F5480068F549084018
:101CA000F3490860F448091D0860081F006820F423
:101CB0008020091F08600020ED490C310860704742
:101CC0000021EB4A921C117011460870704710B544
:101CD00001460022002300204A11012A02D1E44CCF
:101CE000236808E0022A03D1E14C7034236802E043
:101CF000DF4C7434236801F01F02012494401C401F
:101D00000CB1012000E0002010BD38B5002000908B
:101D10000024002500BF3120FFF7D9FF05460098B9
:101D2000401C00900098B0F5A06F01D0002DF2D0BB
:101D30003120FFF7CCFF08B1012400E00024204649
:101D400038BD01460020CA4A106820F0F80040EA79
:101D5000C10010607047C949086070470021C44A3B
:101D6000703211701170012802D004280AD104E0E9
:101D70000121BF4A7032117005E00521BC4A703262
:101D8000117000E000BF00BF7047BD490860704798
:101D900070B5049C41EA82150126C6EB530645EA5C
:101DA0000645054345EA0465B14E361D356070BDF4
:101DB000B24908667047820142EA0172AC4B843333
:101DC0001A607047AD4988667047AC49C86470476F
:101DD00002460020A64B0833186820F0EC6042EA67
:101DE00001031843A24B08331860704702460020D5
:101DF0009F4B0833186820F0784042EA01031843EB
:101E00009B4B08331860704701460020984A0832FF
:101E1000106820F0030008431060704794480830B1
:101E2000006800F00C00704701460020904A08321C
:101E3000106820F0F0000843106070470146002051
:101E40008B4A0832106820F4E05008431060704755
:101E500001460020864A0832106820F4604040EABB
:101E6000C10010607047F0B5002100220024022557
:101E7000002602237E4F08373F6807F00C0121B18E
:101E8000042905D0082937D105E07E4F076036E0E8
:101E90007D4F076033E0764F3F1D3F68C7F38056A4
:101EA000734F3F1D3F6807F03F036EB1764FB7FB9E
:101EB000F3F7DFF8BCC10CF1040CDCF800C0CCF384
:101EC000881C07FB0CF40CE06E4FB7FBF3F7DFF850
:101ED000A0C10CF1040CDCF800C0CCF3881C07FB9B
:101EE0000CF4634F3F1D3F68C7F301477F1C7D0023
:101EF000B4FBF5F7076002E0624F076000BF00BF68
:101F00005B4F08373F6807F0F00109095F4F7A5CC3
:101F10000768D7404760564F08373F6807F4E051DD
:101F2000890A5A4F7A5C4768D7408760504F083714
:101F30003F6807F46041490B544F7A5C4768D740CB
:101F4000C760F0BD002100F44072B2F5407F0AD1B5
:101F5000474A0832116821F4F8114D4A02401143F2
:101F6000434A08321160424A70321268C0F30B03D0
:101F70001A433F4B70331A60704741494439086037
:101F800070473F49403908607047424908607047D0
:101F900039B1374A303212680243354B30331A6058
:101FA00006E0334A303212688243314B30331A60D4
:101FB000704739B12E4A3432126802432C4B343305
:101FC0001A6006E02A4A343212688243284B3433BE
:101FD0001A60704739B1264A383212680243244BDE
:101FE00038331A6006E0224A383212688243204BA6
:101FF00038331A60704739B11D4A403212680243C3
:102000001B4B40331A6006E0194A40321268824383
:10201000174B40331A60704739B1154A4432126881
:102020000243134B44331A6006E0114A44321268EB
:1020300082430F4B44331A60704739B10C4A103257
:10204000126802430A4B10331A6006E0084A103245
:1020500012688243064B10331A607047E1B1044A9C
:10206000143212680243024B14331A6019E0000064
:1020700000380240FFFFF6FE103000240000474207
:10208000800E47420024F40040787D0111000020BA
:10209000FFFCFF0F5C0147425B4A126882435A4BC8
:1020A0001A60704739B1584A121D12680243564BE4
:1020B0001B1D1A6006E0544A121D12688243524BDF
:1020C0001B1D1A60704739B14F4A0C321268024327
:1020D0004D4B0C331A6006E04B4A0C3212688243B7
:1020E000494B0C331A60704739B1474A10321268B5
:1020F0000243454B10331A6006E0434A103212681F
:102100008243414B10331A60704739B13E4A3C322A
:10211000126802433C4B3C331A6006E03A4A3C32B8
:1021200012688243384B3C331A60704739B1364AE3
:10213000403212680243344B40331A6006E0324AA0
:10214000403212688243304B40331A60704739B1D5
:102150002D4A4432126802432B4B44331A6006E086
:10216000294A443212688243274B44331A6070472D
:1021700039B1254A4C3212680243234B4C331A6062
:1021800006E0214A4C32126882431F4B4C331A60DE
:10219000704739B11C4A5032126802431A4B50330F
:1021A0001A6006E0184A503212688243164B5033C8
:1021B0001A60704739B1144AD21F12780243124B89
:1021C000DB1F1A7006E0104AD21F127882430E4BB2
:1021D000DB1F1A7070470C486030006840F0807058
:1021E000094960310860704701460020064A083AF4
:1021F00012680A400AB1012000E00020704702493D
:10220000891F0870704700001438024010B504465A
:10221000F748844208D101211020FFF765FF002113
:102220001020FFF761FF3EE0F248844209D101210E
:102230004804FFF748FF00214FF40030FFF743FF49
:1022400031E0ED48844209D101218804FFF73BFFCA
:1022500000214FF48020FFF736FF24E0E748844256
:1022600009D10121C804FFF72EFF00214FF40020FF
:10227000FFF729FF17E0E248844209D10121080550
:10228000FFF721FF00214FF48010FFF71CFF0AE049
:10229000DC48844207D101212020FFF725FF0021DF
:1022A0002020FFF721FF10BD2DE9FF4705460E4610
:1022B0000024A14600BFA046B08900B100BF2C8A0F
:1022C00024F44054F08804432C82AC8941F20C6021
:1022D0008443B08831890843718908430443AC8141
:1022E000AC8A24F44074B0890443AC826846FFF79A
:1022F000BAFDBF48854202D0C248854202D1DDF80E
:102300000C9001E0DDF80890A88900F4004040B18D
:1023100009EBC90000EB091031684900B0FBF1F787
:1023200007E009EBC90000EB091031688900B0FB38
:10233000F1F76420B7FBF0F004012009642101FBF0
:102340001078A88900F4004040B1322000EBC800AA
:10235000B0FBF1F000F00700044308E0322000EB8E
:1023600008106421B0FBF1F000F00F0004432C8151
:10237000BDE8FF874FF41651016000218180C180C4
:1023800001810C21418100218181704710B50246F5
:102390000020108A20F470600B884C8823438C88BE
:1023A0002343CC8823431843108210BD00210180B1
:1023B00041808180C180704721B1828942F40052FE
:1023C000828104E082894DF6FF731A408281704752
:1023D000028B02F47F420283028B0A43028370471E
:1023E00021B1828942F40042828103E08289C2F3F2
:1023F0000E028281704721B1828A42F40062828299
:1024000004E0828A4FF2FF731A4082827047C1F360
:1024100008028280704701468888C0F30800704730
:10242000028A4FF6F0731A400282028A0A4302823D
:10243000704721B1828942F00202828104E08289E0
:102440004FF6FD731A408281704782894FF2FF7305
:102450001A40828182890A4382817047028A4FF63C
:10246000DF731A400282028A0A430282704721B156
:10247000028A42F48042028204E0028A4BF6FF7331
:102480001A4002827047818941F0010181817047C1
:1024900021B1828A42F00802828204E0828A4FF6E9
:1024A000F7731A4082827047028BD2B20283028B8A
:1024B00042EA01220283704721B1828A42F020025F
:1024C000828204E0828A4FF6DF731A40828270476C
:1024D00021B1828A42F01002828204E0828A4FF6A1
:1024E000EF731A4082827047828A4FF6FB731A405C
:1024F0008282828A0A438282704721B1828A42F0B4
:102500000202828204E0828A4FF6FD731A408282C0
:1025100070471AB1838A0B43838202E0838A8B431C
:1025200083827047F0B50346002400260025002072
:1025300040F66A17B94200D100BF1846C1F34214F1
:1025400001F01F06012707FA06F5012C01D10C3016
:1025500004E0022C01D1103000E014301AB10768F9
:102560002F43076002E00768AF430760F0BD0246F3
:102570000020B1F5007F00D100BF13880B400BB1E4
:10258000012000E00020704701F40072B2F5007FE6
:1025900000D100BFCA430280704770B502460024D4
:1025A00000230025002040F66A16B14200D100BF8A
:1025B000C1F3421501F01F03012606FA03F3012DB2
:1025C00002D19689334006E0022D02D1168A3340AB
:1025D00001E0968A33400C12012606FA04F41688AC
:1025E000344013B10CB1012000E0002070BD0000A8
:1025F000001001400044004000480040004C0040F2
:10260000005000400014014010B50022002340F6A5
:102610006A14A14200D100BF0A1201249440A3B25F
:10262000DC43048010BD0146412903DB5A2901DC4B
:10263000012200E00022012A08D0612903DB7A2967
:1026400001DC012200E00022012A01D1012200E088
:102650000022104670470146412903DB5A2901DC5C
:10266000012200E00022012A08D0612903DB7A2937
:1026700001DC012200E00022012A01D1012200E058
:102680000022012A08D0302903DB392901DC01228C
:1026900000E00022012A01D1012200E000221046C0
:1026A00070470146612903DB7A2901DC012200E041
:1026B0000022104670470146412903DB5A2901DCFC
:1026C000012200E00022104670470146302903DB5A
:1026D000392901DC012200E0002210467047014642
:1026E000302903DB372901DC012200E000221046FB
:1026F00070470146302901DB392907DD412901DB1B
:10270000462903DD612903DB662901DC012200E0A3
:102710000022104670470146202901D0092901D125
:10272000012200E00022104670470146202909D00E
:102730000D2907D00A2905D00C2903D0092901D079
:102740000B2901D1012200E000221046704701460A
:10275000202903DB7E2901DC012200E00022104653
:1027600070470146212903DB7E2901DC012200E0BC
:102770000022104670470146202903DB7E2901DC38
:10278000012200E00022012A35D1202909D00D299B
:1027900007D00A2905D00C2903D0092901D00B291B
:1027A00001D1012200E000222ABB412903DB5A2982
:1027B00001DC012200E00022012A08D0612903DBAC
:1027C0007A2901DC012200E00022012A01D1012244
:1027D00000E00022012A08D0302903DB392901DC7E
:1027E000012200E00022012A01D1012200E00022A2
:1027F0000AB9012200E000221046704701464AB2A1
:10280000002A01DB1F2901DD7F2901D1012200E01F
:102810000022104670470146412903DB5A2901DC9A
:10282000012200E00022012A02D101F1200200E091
:102830000A46D0B270470146612903DB7A2901DCE0
:10284000012200E00022012A02D1A1F1200200E0D1
:102850000A46D0B27047F0B504460B462046FFF753
:10286000EAFF05461846FFF7E6FF0646B54201D1E6
:10287000012000E0002007463846F0BDFD48FE4933
:1028800001600146416000218160C16001614161D8
:102890008161C16101620163C1624162F749816383
:1028A000C1634FF41051016441640146F44A116060
:1028B00070472DE9F04103460C4617460FB9BDE8B5
:1028C000F08103B9FBE70025002202E02D02254339
:1028D000521C042AFAD3384603F0030C1946BCF103
:1028E000000F08D0624603E001F8014B401E521C65
:1028F00008B1042AF8D30E4601E020C6001F0428C0
:10290000FBD2314602E001F8014B401E0028FAD10B
:1029100000BFD4E730B505460C46224600212846C4
:10292000FFF7C7FF30BD2DE9F04F85B00746884659
:102930009146B9F1000F02D105B0BDE8F08F07B99B
:10294000FAE7B8F1000F00D1F6E746463D46AE4241
:1029500005D94A464146384601F086FBECE74C462D
:102960003819451E08EB0400461EA81B0490049865
:10297000042834D305F00300029006F0030101910E
:10298000DDE90110884201D1012000E00020009023
:102990000098012823D10298032810D0029840B251
:1029A000039008E016F8010905F80109641E039870
:1029B000401E40B2039014B103980028F2DAA5F14A
:1029C000030AA6F1030B04E05BF804094AF80409C2
:1029D000241F042CF8D20AF103050BF1030604E0CE
:1029E00016F8010905F80109641E002CF8D100BF92
:1029F000A2E72DE9F84F80468946154615B9012012
:102A0000BDE8F88FB8F1000F01D10020F8E7B9F167
:102A1000000F01D10020F3E70124294608EB05024D
:102A200009EB050302F0030C03F0030BDC4501D1B5
:102A3000012000E0002000900098012829D1BCF17D
:102A4000000F12D0E2460AE0521E5B1E107893F887
:102A500000E0704500D00024491EAAF1010A012CB3
:102A600003D111B1BAF1000FEED1012C11D11646EC
:102A70001F4608E0361F3F1F3068D7F800E070455A
:102A800000D00024091F012C01D10429F2D23246C2
:102A90003B4608E0521E5B1E107893F800E070453C
:102AA00000D00024491E012C01D10029F2D120467A
:102AB000A6E7F0B503460D461646DA6BB2FBF6F014
:102AC00006FB102CBCF1000F02D0A6EB0C0400E0BA
:102AD00000246119586C884201D20020F0BDA14247
:102AE00001D3A94201D20020F8E75718974201D23A
:102AF0000020F3E72244DF63586C401A5864104604
:102B0000ECE72DE9F04F81468C461C46B9FBF4F00A
:102B100004FB109BBBF1000F02D0A4EB0B0600E0FE
:102B20000026B2FBF4F004FB102BBBF1000F02D027
:102B3000A4EB0B0300E00023D018ACF1010E00FB66
:102B40000E60871806EB0208B04501D3904502D20B
:102B50000020BDE8F08FBCF1010F22D9D5189D42AD
:102B600001D3954201D20020F3E7ACF1010000FB54
:102B700005F1A94203D3994201D3914201D2002029
:102B8000E7E701EB020A8A4501D3924501D2002012
:102B9000DFE7474503D38F4201D3574501D20020D9
:102BA000D7E73846D5E72DE9FE4F07468846154654
:102BB0001C46002000901CB900BF01F08BFB00BF39
:102BC0000DB901AD00BF002028602FB942F274702A
:102BD00020800020BDE8FE8FB8F1000F04D142F242
:102BE000757020800020F5E7DFF8889000BF00BFF7
:102BF00001F0A4FC009000BF00BFD9F83C00029097
:102C0000D9F844B043463A4601210298FFF779FFCC
:102C1000064666B900BF00BF009801F093FC00BFF4
:102C200000BF2F6042F2E37020800020D2E75E45B3
:102C30000ED900BF00BF009801F084FC00BF00BFA8
:102C4000A6EB0B00286042F2E27020800020C1E772
:102C5000424639464846FFF72CFF8246BAF1000F3C
:102C600015D100BF00BF009801F06CFC00BF00BF91
:102C70002E6007E06805002048454150B00500205F
:102C80002400002042F2E27020800020A2E700BF72
:102C900000BF009801F056FC00BF00BF42F2107068
:102CA0002080504696E72DE9FC5F06460D46144607
:102CB000002000901CB900BF01F00CFB00BF2DB933
:102CC00042F2757020800020BDE8FC9FB5F5805F62
:102CD00004D942F2757020800020F5E726B942F24F
:102CE000117020800020EFE700BF00BF01F026FC3C
:102CF000009000BF00BFFE493068084440B1FD4964
:102D0000084418B1FC49084408B900BF0CE000BFF2
:102D100000BF00BF009801F015FC00BF00BF42F2E9
:102D2000887020800020CFE700BFD6F80490D9F843
:102D3000380008B1484600E0F0488246DAF84470AE
:102D4000DAF83CB000BF00BF009801F0FBFB00BF09
:102D500000BF012D0DD9BBFBF5F005FB10B8B8F194
:102D6000000F02D0A5EB080000E0002001900198C0
:102D70003F1A42F2107020803846A5E770B504462D
:102D80000D462A462146DD48FFF78DFF06463046B0
:102D900070BD70B504460D461DB900BF01F09AFA2A
:102DA00000BF1CB942F21170288070BDD04840426B
:102DB000206000206060A060E06020616061A06130
:102DC000E0612062A06260632063E0626062A063F1
:102DD000E0632064606442F21070288000BFE4E782
:102DE0002DE9FF4F91B00446DDE9209500200090C9
:102DF0001DB900BF01F06EFA00BFB9F1000F02D19A
:102E00000DF1100900BF0020C9F800002946204636
:102E1000FFF7BFFF288842F21071884202D015B038
:102E2000BDE8F08F129828B1139818B942F27E705D
:102E30002880F4E7149818B942F292702880EEE7DF
:102E40001E9818B942F293702880E8E71F9818B9C5
:102E500042F294702880E2E7A948006818B942F26B
:102E6000E7702880DBE7A54810904FF0000A00BF0C
:102E700000BF01F063FB009000BF00BF1298002864
:102E80005BD1109E109E0E96109E3746109EF06BE2
:102E90000B9004231A4614990B98FFF732FE039007
:102EA000039850B900BF00BF009801F04BFB00BF72
:102EB00000BF42F2E3702880B1E703990B98084401
:102EC0000A90DDE91E2314990A98FFF71AFE83463B
:102ED000BBF1000F0AD100BF00BF009801F032FB28
:102EE00000BF00BF42F2E370288098E7039800EB30
:102EF0000B0A0398824501D3DA450AD200BF00BF0E
:102F0000009801F01FFB00BF00BF42F2E370288071
:102F100085E71098D0F84480C2457DD900BF00BF36
:102F2000009801F00FFB00BF00BFAAEB0800C9F832
:102F3000000042F2E270288071E712980990DDE902
:102F400012010844401E0890DDE9081081420AD2AF
:102F500000BF00BF009801F0F5FA00BF00BF42F2C9
:102F6000977028805BE7002600200E906448076871
:102F70003AE0B96B1298814205D1396C13988142BD
:102F800001D13E4632E0B86B0790396CB86B08440B
:102F9000401E0690DDE90701814200D226E0079934
:102FA0000998884203D8DDE9071088420FD20799B3
:102FB0000998884203D306990898884207D9069948
:102FC000099888420ED80699089888420AD300BF0B
:102FD00000BF009801F0B6FA00BF00BF42F27F7058
:102FE00028801CE70E97FF68002FC2D100BF46B9AA
:102FF00026461298A0631298E063139820641398F1
:1030000060641098C06B0B9004231A4614990B98B7
:10301000FFF777FD039000E04CE0039850B900BF44
:1030200000BF009801F08EFA00BF00BF42F2E370CB
:103030002880F4E61098D0F84480039840450FD9D2
:1030400000BF00BF009801F07DFA00BF00BF0398E9
:10305000A0EB0800C9F8000042F2E2702880DEE62A
:10306000F06B0A90DDE91E2314990A98FFF749FDD9
:103070008346BBF1000F0AD100BF00BF009801F0EA
:1030800061FA00BF00BF42F2D9702880C7E6D6F8C7
:103090004480C3450ED900BF00BF009801F052FA2A
:1030A00000BF00BFABEB0800C9F8000042F2D870C7
:1030B0002880B4E6149880000290042202991098A7
:1030C000FFF7F7FC0D900D9878BB1098D0F844806E
:1030D00000BF00BF009801F035FA00BF00BF129892
:1030E00098B9C2450ED9AAEB0800C9F8000018E04B
:1030F000B2B0B1BAFEFFFEF8080A0EFC6805002067
:1031000024000020C9F800A00BE00298404505D932
:103110000298A0EB0800C9F8000002E00298C9F884
:10312000000042F2E270288079E6FFE7002001907B
:1031300032E03046DDE91E12FFF7BBFC0C900C9824
:1031400010BBF06B0A90D6F8448000BF00BF009817
:1031500001F0F8F900BF00BF01991498401A0590DA
:10316000DDE91E2305990A98FFF7CBFC8246C2458C
:1031700004D9AAEB0800C9F8000001E0C9F800A0D2
:1031800042F2D87028804AE6019ADDE90C0141F844
:1031900022000198401C0190149901988842C8D3DC
:1031A000A6420CD10E98A060E7600E9810B10E9860
:1031B000C46001E0FE4804605FB1BC6009E0706972
:1031C0000F9026610F98606174610F9808B10F9895
:1031D0000461F848206066600A98A0610A98584423
:1031E000401EE0610D982062C4F828B01F9860630B
:1031F0001E9820631498E0621498606200BF00BFBC
:10320000009801F09FF900BF00BF42F210702880C3
:1032100000BF04E62DE9F04105460C4600271CB925
:1032200000BF01F057F800BF2DB942F211702080A5
:103230000020BDE8F08100BF00BF01F07FF9074624
:1032400000BF00BFDC492868084440B1DB4908449E
:1032500018B1DB49084408B902E00DE000BF00BF27
:1032600000BF00BF384601F06DF900BF00BF42F259
:10327000887020800020DCE700BF6E6A00BF00BFBE
:10328000384601F05FF900BF00BF42F210702080A5
:103290003046CEE72DE9F04104460E4615464FF084
:1032A00000081DB900BF01F015F800BF2CB942F2AB
:1032B000117028800020BDE8F08126B942F2937099
:1032C00028800020F7E700BF00BF01F037F98046F3
:1032D00000BF00BFB749206888420BD000BF00BFC5
:1032E000404601F02FF900BF00BF42F288702880ED
:1032F0000020E0E7206BB0420BD200BF00BF404689
:1033000001F020F900BF00BF42F293702880002036
:10331000D1E7606A58B900BF00BF404601F012F91A
:1033200000BF00BF42F2DE7028800020C3E7E16AE0
:10333000606A88420BD900BF00BF404601F002F925
:1033400000BF00BF42F2957028800020B3E7606A9A
:10335000401E6062D4E9080150F8217000BF00BF30
:10336000404601F0EFF800BF00BF42F21070288025
:103370003846A0E72DE9F04704460F4615464FF0C2
:1033800000091DB900BF00F0A5FF00BF2CB942F233
:10339000117028800020BDE8F08700BF00BF01F059
:1033A000CDF8814600BF00BF8249206888420BD01B
:1033B00000BF00BF484601F0C5F800BF00BF42F2A1
:1033C000887028800020E6E7E16A606A88420BD3B3
:1033D00000BF00BF484601F0B5F800BF00BF42F291
:1033E000957028800020D6E7E06AC01B461EE06A80
:1033F000B0420BD800BF00BF484601F0A3F800BFA1
:1034000000BF42F2957028800020C4E7606AB04295
:103410000BD900BF00BF484601F094F800BF00BFC1
:1034200042F2957028800020B5E7206A50F8268087
:1034300000BF00BF484601F085F800BF00BF42F260
:10344000107028804046A6E72DE9F04F02460C4652
:103450009569D2F81CB0AC4201D35C4502D900207A
:10346000BDE8F08F536BB5FBF3F003FB105111B1C6
:10347000A3EB010C01E04FF0000C176BB7FBF3F06E
:1034800003FB107109B15E1A00E0002605EB0C0881
:10349000A4EB080A07EB0609BAFBF9F009FB10A038
:1034A00008B9012000E0002086467046D8E72DE9E3
:1034B000F04704460F4615464FF0000A1DB900BFFD
:1034C00000F008FF00BF24B942F211702880BDE867
:1034D000F0871FB942F211702880F8E700BF00BFE3
:1034E00001F02CF8824600BF00BF324920688842B4
:1034F0000AD000BF00BF504601F024F800BF00BF53
:1035000042F288702880E2E739462046FFF79CFFA8
:103510008046B8F1010F0AD000BF00BF504601F04D
:1035200011F800BF00BF42F297702880CFE7002655
:1035300010E0206A50F82600B8420AD100BF00BF50
:10354000504600F0FFFF00BF00BF42F29870288095
:10355000BDE7761C606AB042EBD8E16A606A8842D7
:103560000AD300BF00BF504600F0ECFF00BF00BF11
:1035700042F2DD702880AAE74FF00008666A08E092
:10358000206A50F82690B94502D14FF0010803E0B7
:10359000761CE06AB042F3D800BFB8F1010F11D138
:1035A000D4E9080150F82100216A41F8260014E00E
:1035B00024000020504F4F4CB2B0B1BAFEFFFEF8CD
:1035C000080A0EFC00BF00BF504600F0BBFF00BF62
:1035D00000BF42F28870288079E7D4E9080140F8FA
:1035E0002170606A401C606200BF00BF504600F05E
:1035F000A9FF00BF00BF42F21070288000BF66E73D
:103600002DE9F84F04460F461546002000904FF074
:10361000FF3B1DB900BF00F05DFE00BF2CB942F2B8
:10362000117028805846BDE8F88F27B942F2117012
:1036300028805846F7E700BF00BF00F07FFF0090EA
:1036400000BF00BF3D49206888420BD000BF00BFCB
:10365000009800F077FF00BF00BF42F2887028801A
:103660005846E0E739462046FFF7EEFE8046B8F1BF
:10367000010F0BD000BF00BF009800F063FF00BF38
:1036800000BF42F2977028805846CCE7002611E030
:10369000206A50F82600B8420BD100BF00BF009846
:1036A00000F050FF00BF00BF42F2987028805846DB
:1036B000B9E7761C606AB042EAD8E16A606A88427B
:1036C0000BD300BF00BF009800F03CFF00BF00BF5D
:1036D00042F2DD7028805846A5E74FF00008666A80
:1036E00008E0206A50F82690B94502D14FF0010851
:1036F00003E0761CE06AB042F3D800BFB8F1010FD6
:103700000FD1E06A401EA0EB060A00BF00BF009880
:1037100000F018FF00BF00BF42F210702880504632
:1037200081E700BF00BF009800F00CFF00BF00BFA2
:1037300042F288702880584675E70000504F4F4C81
:1037400010B502460B461146002001E0491C401C02
:1037500019B10C780CB19842F8D310BD30B50446BD
:103760004FF0FF312046FFF7EBFF0546284630BDFE
:1037700070B504460D4616460CB9002070BD0DB953
:103780000020FBE721462A46002304E01078087059
:10379000491C521C5B1C21B11AB1107808B1B3420C
:1037A000F4D301B10AB90020E8E7B34201D2002006
:1037B00008702046E2E770B504460D464FF0FF3230
:1037C00029462046FFF7D4FF0646304670BD70B547
:1037D00003460C4615460BB9002070BD0CB90020FD
:1037E000FBE70DB91846F8E7194600E0491C11B18E
:1037F00008780028FAD109B90020EEE72246002611
:1038000004E010780870491C521C761C21B11AB1D2
:10381000107808B1AE42F4D301B10AB90020DCE758
:10382000002008701846D8E770B504460D464FF0E2
:10383000FF3229462046FFF7CAFF0646304670BDD4
:103840002DE9F04305460B469446BCF1000F02D12A
:103850000020BDE8F08335B90BB90020F9E71878EE
:1038600042421046F5E713B92A781046F1E7294697
:103870001C460F4626467F1C761C4FF0000805E0CC
:10388000491C641C7F1C761C08F10108087894F818
:103890000090484505D1087818B117B10EB1E04540
:1038A000EED3E04501D10020D3E7087894F80090EA
:1038B000484505D0087894F80090A0EB09020BE089
:1038C000087808B9002207E02FB90EB9002203E0FA
:1038D0003078424200E03A781046BAE770B50446C4
:1038E0000D464FF0FF3229462046FFF7A9FF064656
:1038F000304670BD2DE9F74F82B080460E460498E1
:1039000018B9002005B0BDE8F08FB8F1000F09D15B
:103910000EB90020F6E73078FEF77DFF07467C42BF
:103920002046EFE73EB998F80000FEF774FF054621
:103930002C462046E6E7C146B246C846C346564630
:10394000CDF804A0D8460BF1010B019E701C01902C
:10395000C84699F80000FEF75EFF054656469AF8FD
:103960000000FEF758FF07460020009015E009F11F
:1039700001090AF1010A0BF1010B0198401C0190A9
:103980000098401C009099F80000FEF744FF05469F
:103990009AF80000FEF73FFF0746BD420BD199F8A9
:1039A000000040B1BBF1000F05D0019818B1049997
:1039B00000988842DBD304990098884201D1002006
:1039C000A0E7BD4201D0EC1B16E00DB9002413E0C6
:1039D000BBF1000F0AD1019808B900240CE001994D
:1039E0000878FEF718FF07467C4205E09BF80000C8
:1039F000FEF711FF05462C46204683E770B50446C6
:103A00000D464FF0FF3229462046FFF773FF06466A
:103A1000304670BD30B504460B4615460CB9002043
:103A200030BD0BB90020FBE72146002201E0491C14
:103A3000521C31B1087820B10878A84201D09A42CE
:103A4000F5D309B90020EBE79A4201D30020E7E75C
:103A50000878A84201D00020E2E70846E0E770B508
:103A600005460C4622464FF0FF312846FFF7D2FFAD
:103A70000646304670BD2DE9F04305460E46174612
:103A800015B90020BDE8F0830EB90020FAE72C46F6
:103A9000A6F1010949462046FFF752FE80464444FC
:103AA0000CB90020EEE700E0641EAC4202D02078A2
:103AB000B842F9D12078B84201D00020E2E7204690
:103AC000E0E770B505460C4622464FF0FF31284628
:103AD000FFF7D1FF0646304670BD70B504460D466F
:103AE00016460CB9002070BD0BB90020FBE721463B
:103AF0001A4605E00878A84200D10E70491C521EF3
:103B000019B1087808B1002AF4D12046EBE7F0B5E6
:103B100004460D4616464FF0FF33324629462046EE
:103B2000FFF7DBFF07463846F0BD2DE9FF4F06469D
:103B30000F4615461EB9002004B0BDE8F08F0FB93E
:103B40000020F9E70DB90020F6E7681C00B101E09C
:103B50004FF0FF30039029463046FFF7F1FD8046D5
:103B600038460399FFF7ECFD04460CB93046E3E70D
:103B7000444501D90020DFE706EB080BBBF1000F3D
:103B800001D10020D8E707EB040BBBF1000F01D1F6
:103B90000020D1E7A8EB040002904FF000090020BC
:103BA000019000BF06EB09000090224639460098BC
:103BB000FFF746FE8246BAF1000F01D1012000E076
:103BC0000020019009F10109019810B9029881457E
:103BD000E8D9BAF1000F01D00020ADE70098ABE7BB
:103BE00070B504460D464FF0FF3229462046FFF7D8
:103BF0009CFF0646304670BD2DE9FF4F8DB00F4645
:103C000015461A9E1D9818B9002011B0BDE8F08F16
:103C100000200390012F01DA01200390022D01D32F
:103C2000242D01D90120039096B33046FEF78FFD75
:103C300002900298012802D00120039028E0302E43
:103C400026D0A6F13000C0B207901B98012804D0FE
:103C5000A6F14100C0B2069003E0A6F16100C0B237
:103C600006900A2D02D80798A84209DB0A2D09D927
:103C700007980A2804D3A5F10A000699884201D9B9
:103C8000012000E0002005900598012800D1039054
:103C90001D9C0398002846D1DDF834A0DDF834A03F
:103CA000CDF830A001200B9007E00B98401CC0B26B
:103CB0000B900C98B0FBF5F00C900C98A842F4D245
:103CC0001098012800D100E0002009900B99099874
:103CD0000844B84225DC002001900B98B84201DA74
:103CE0000B9800E038460A903EB1B8460A98391A57
:103CF0000998081AC0B2089006E0DDE909100844E6
:103D000000F0FF08002008900898002806DD302EFB
:103D100001D1012000E00020049004E00020049084
:103D200001E001200390039800B1B84644441C9878
:103D300008B100202070641E4FF0000941E0039894
:103D4000A8BBBAF1000F02D1B9F1000F1CD1BAFB28
:103D5000F5F005FB10A000F0FF0BBBF10A0F04D239
:103D60000BF1300004F801090BE01B98012804D086
:103D70000BF1370004F8010903E00BF1570004F8D8
:103D80000109BAFBF5FA1AE01098012810D104983D
:103D900008B9019828B1049850B1A8F1010048452C
:103DA00006D12D2004F801090120019007E003E06D
:103DB0002EB104F8016902E03F2004F8010909F17D
:103DC0000109C145BBD3039808B100201DE71D9828
:103DD0001BE72DE9FF5F05460E4617461C46DDE949
:103DE0000F9ADDF8388000233A46314628468DE8A0
:103DF0001007FFF701FF8346584604B0BDE8F09F67
:103E00002DE9FF4F85B0044689461F46DDE913AB17
:103E1000002C02DA6542012601E0254600261298B0
:103E20003346CDE902ABCDE9007049462846079AF2
:103E3000FFF7E2FE8046404609B0BDE8F08F2DE96D
:103E4000FF4F8BB0064689461546B9F1000F02D1E7
:103E50000DF1240900BFC9F80060189810B907A82F
:103E6000189000BF0021189801701EB900200FB0F3
:103E7000BDE8F08F012D01D0242D01D90020F6E7F7
:103E800034462078FEF751FC039004E0641C20784F
:103E9000FEF74BFC039003980128F7D020782B28DD
:103EA00002D02D280BD103E0641C4FF0000B09E079
:103EB0000E98012800D1641C4FF0010B02E04FF076
:103EC000000B00BF00BF0A9425B1082D1CD0102D97
:103ED00036D11EE02078302814D1641C2078582870
:103EE00002D078280BD100BF102567783846FEF73E
:103EF00000FC8246BAF1010F00D1641C01E00825E4
:103F000000BF00E00A251CE02078302800D1641CA6
:103F100017E02078302812D1641C2078582802D06D
:103F200078280AD100BF67783846FEF7E2FB824660
:103F3000BAF1010F00D1641C00E000BF00BF00E037
:103F400000BF00BF4FF0000800200290019040E049
:103F500027783846FEF77FFB05900598012836D173
:103F60003846FEF7B2FB06900698012804D1A7F167
:103F70003000C0B208900FE03846FEF792FB049084
:103F80000498012804D1A7F15700C0B2089003E0BB
:103F9000A7F13700C0B208900898A84214DA029836
:103FA00080B9304850F82500404509D308FB05F892
:103FB000089880440898804504D20120029001E0CE
:103FC00001200290641C04E00120019001E0012026
:103FD000019001980028BBD00298012801D14FF030
:103FE000FF380A98844202D0C9F8004001E0C9F8BD
:103FF0000060189880F800B0404638E7F8B50446ED
:104000000D461646002003463246294600902046BB
:10401000FFF715FF07463846F8BD2DE9FC41054678
:104020000E46174601A801233A463146009028461D
:10403000FFF705FF04469DF8040040B9B4F1004FB6
:1040400002D36FF0004000E02046804607E0B4F164
:10405000004F02D34FF0004000E0604280464046EF
:10406000BDE8FC81C8B60008002800D170470029CF
:1040700000D17047002A00D170472DE9F81F00F0E9
:10408000030301F00304A34211D1C3F1040303F0BD
:104090000303012B1DD3012A00D2F2E011F8014BDA
:1040A00000F8014BA3F10103A2F10102F1E700F0D6
:1040B000010301F00104A34200D094E0012B44D39A
:1040C00011F8014B00F8014BA3F10103A2F1010229
:1040D000F4E7B2F5B47F26D3B1E8F81FA0E8F81FE3
:1040E000B1E8F81FA0E8F81FB1E8F81FA0E8F81F32
:1040F000B1E8F81FA0E8F81FB1E8F81FA0E8F81F22
:10410000B1E8F81FA0E8F81FB1E8F81FA0E8F81F11
:10411000B1E8F81FA0E8F81FB1E8F81FA0E8F81F01
:10412000A2F5B472D5E7282A06D3B1E8F81FA0E8B3
:10413000F81FA2F12802F6E7042A06D351F8043B3F
:1041400040F8043BA2F10402F6E7202A42D331F8FA
:10415000023B20F8023B31F8023B20F8023B31F8E9
:10416000023B20F8023B31F8023B20F8023B31F8D9
:10417000023B20F8023B31F8023B20F8023B31F8C9
:10418000023B20F8023B31F8023B20F8023B31F8B9
:10419000023B20F8023B31F8023B20F8023B31F8A9
:1041A000023B20F8023B31F8023B20F8023B31F899
:1041B000023B20F8023B31F8023B20F8023B31F889
:1041C000023B20F8023B31F8023B20F8023BA2F10F
:1041D0002002BAE7022A06D331F8023B20F8023B5C
:1041E000A2F10202F6E7102A42D311F8013B00F8CF
:1041F000013B11F8013B00F8013B11F8013B00F8CD
:10420000013B11F8013B00F8013B11F8013B00F8BC
:10421000013B11F8013B00F8013B11F8013B00F8AC
:10422000013B11F8013B00F8013B11F8013B00F89C
:10423000013B11F8013B00F8013B11F8013B00F88C
:10424000013B11F8013B00F8013B11F8013B00F87C
:10425000013B11F8013B00F8013B11F8013B00F86C
:10426000013B11F8013B00F8013BA2F11002BAE753
:10427000012A06D311F8013B00F8013BA2F101022B
:10428000F6E7BDE8F81F704710B5002400BF00BF77
:1042900000F054F9044600BF00BF1021A248FEF709
:1042A00039FB00BF00BF204600F04CF900BF00BF43
:1042B00010BD10B5FFF7E8FF10BD10B500209B49F9
:1042C0000860FCF781FC10BD10B5FFF7F6FFFFF7A3
:1042D000F0FF10BD00BFFEE770B505460C46002696
:1042E00014B900BFFFF7F6FF15B90A20208070BD92
:1042F00000BF00BF00F022F9064600BF00BF102239
:1043000089492846FFF734FA00BF00BF304600F065
:1043100019F900BF00BF0020208000BFE7E72DE9AA
:10432000F04105460C46002714B900BFFFF7D2FF45
:104330001DB90A202080BDE8F08110212846FFF732
:10434000FFF90646102E15D200BF00BF00F0F6F8A8
:10435000074600BF00BF102229467348FFF708FA3E
:1043600000BF00BF384600F0EDF800BF00BF0020DE
:10437000208002E04FF47A70208000BFDBE710B5A8
:10438000FCF748FC0446204610BD704700B50146C6
:1043900011B900BFFFF79EFF644A106808B1002200
:1043A00001E04FF4FA620A8000BD6049086070477E
:1043B00070B50546284600F0CCF80446183C204667
:1043C00070BD70B50546284600F0C3F80446103CA1
:1043D000204670BD70B50546284600F0BAF8044680
:1043E00000BF204670BD30B502460B464FF0FF358A
:1043F0000024AD1A9C4127D24FF0FF352C0CAD1A8A
:104400009C410FD24FF0FF352C0AAD1A9C4103D2CC
:10441000190E474C605C45E0190C454C645C04F196
:1044200008003FE04FF0FF35FF24AD1A9C4105D254
:10443000190A3F4C645C04F1100033E019463C4C0F
:10444000645C04F118002DE04FF6FF750024AD1AEE
:104450009C4115D26FF07F450024AD1A9C4107D2D4
:10446000140E44EA0321324C645C04F1200019E08C
:10447000140C44EA03412E4C645C04F1280011E062
:10448000FF250024AD1A9C4107D2140A44EA0361B7
:10449000274C645C04F1300004E01146244C645C59
:1044A00004F1380030BD70B504460CB9082070BD69
:1044B000204600F051F805462846F8E770B5044656
:1044C0000CB9102070BD204600F046F8054628467D
:1044D000F8E770B504460CB9202070BD204600F006
:1044E0003BF805462846F8E72DE9F04304460D461B
:1044F000002184EA01006940084302D14020BDE860
:10450000F083E243E843521C40F1000102EA040652
:1045100001EA050730463946FFF765FF8046C8F1D6
:104520003F094846EBE70000B029002028000020A2
:104530005CB7000872B6704762B67047EFF3108040
:1045400072B6704780F31088704730BF704720BF45
:104550007047B0FA80F0704790FAA0F0B0FA80F09F
:10456000704790FAA0F0704710B5B0F1005F0AD321
:10457000F84CA04207D8440104EB810303F1085230
:10458000002414600CE0B0F1804F09D3F24CA0423B
:1045900006D8440104EB810303F184420024146033
:1045A00010BD10B5B0F1005F0AD3EA4CA04207D8A5
:1045B000440104EB810303F10852012414600CE070
:1045C000B0F1804F09D3E44CA04206D8440104EB7B
:1045D000810303F184420124146010BD2DE9F041F0
:1045E00004464FF00008102C6BD2DFE804F0080EF0
:1045F0000F1014293E090A0B0C11120D135300BFA2
:1046000000BF00BF00BF00BF89E000BF00BF00BF08
:1046100000BF00BF83E000BF00BFFFF78FFF8046F1
:1046200000BF00BFCD48006820F48030CB4908604F
:1046300000BF00BF4046FFF785FF00BF00BF6EE030
:1046400000BF00BFFFF77AFF804600BF00BFC3482E
:10465000006820F40030C149086000BF00BF404638
:10466000FFF770FF00BF00BF59E000BF00BFFFF7BA
:1046700065FF804600BF00BFB848006820F4802076
:10468000B649086000BF00BF4046FFF75BFF00BFB0
:1046900000BF44E000BF00BFFFF750FF804600BFEF
:1046A00000BF4FF0E020006920F001004FF0E02152
:1046B000086100BF00BF4046FFF744FF00BF00BFD6
:1046C0002DE04FF0E0204068401C102101EB40102D
:1046D000C6B2B44222DAA4F11000C11700EBD161D6
:1046E000C1F34715C11700EBD1614911A0EB41118E
:1046F000CFB200BF00BFFFF721FF804600BF00BF61
:104700000120B840A90001F1E021C1F8800100BFFB
:1047100000BF4046FFF716FF00BF00BF00BF00BF4D
:10472000BDE8F0812DE9F04104464FF00008102C5F
:104730006BD2DFE804F0080E0F1014293E090A0BB3
:104740000C11120D135300BF00BF00BF00BF00BF0C
:1047500089E000BF00BF00BF00BF00BF83E000BF13
:1047600000BFFFF7EBFE804600BF00BF7B4800683C
:1047700040F480307949086000BF00BF4046FFF731
:10478000E1FE00BF00BF6EE000BF00BFFFF7D6FE36
:10479000804600BF00BF7148006840F400306F4998
:1047A000086000BF00BF4046FFF7CCFE00BF00BF5F
:1047B00059E000BF00BFFFF7C1FE804600BF00BF49
:1047C0006648006840F480206449086000BF00BF6C
:1047D0004046FFF7B7FE00BF00BF44E000BF00BF88
:1047E000FFF7ACFE804600BF00BF4FF0E02000693D
:1047F00040F001004FF0E021086100BF00BF4046DB
:10480000FFF7A0FE00BF00BF2DE04FF0E0204068A2
:10481000401C102101EB4010C7B2BC4222DAA4F1C7
:104820001000C11700EBD161C1F34715C11700EBB0
:10483000D1614911A0EB4111CEB200BF00BFFFF71B
:104840007DFE804600BF00BF0120B040A90001F1FD
:10485000E021C1F8000100BF00BF4046FFF772FE33
:1048600000BF00BF00BF00BFBDE8F0812DE9F041EF
:1048700004464FF00008102C19D2DFE804F0080EAF
:104880000F10111516090A0B0C12130D141700BF87
:1048900000BF00BF00BF00BF37E000BF00BF00BFC8
:1048A00000BF00BF00BF00BF00BF00BF2DE04FF042
:1048B000E0204068401C102101EB4010C7B2BC4210
:1048C00022DAA4F11000C11700EBD161C1F3471542
:1048D000C11700EBD1614911A0EB4111CEB200BF6D
:1048E00000BFFFF72BFE804600BF00BF0120B04095
:1048F000A90001F1E021C1F8800200BF00BF4046DD
:10490000FFF720FE00BF00BF00BF00BFBDE8F08181
:104910002DE9F05F06460D464FF0000B2846FFF7E5
:1049200020FE82464FEA1A65102E71D2DFE806F0AB
:10493000080E0F10182D43090A0B0C59710D879E94
:1049400000BF00BF00BF00BF00BFE3E000BF00BF6B
:10495000E0E00000FFFF0F20FFFF0F4024ED00E02C
:1049600000BF00BFFFF7EAFD834600BF00BFDB4882
:10497000046824F0FF042C43046000BF00BF5846C5
:10498000FFF7E0FD00BF00BFC4E000BF00BFFFF7BE
:10499000D5FD834600BF00BFD048046824F47F449F
:1049A00044EA0524046000BF00BF5846FFF7CAFD73
:1049B00000BF00BFAEE000BF00BFFFF7BFFD8346F2
:1049C00000BF00BFC548046824F47F0444EA0544DE
:1049D000046000BF00BF5846FFF7B4FD00BF00BF32
:1049E00098E000BF00BFFFF7A9FD834600BF00BFEE
:1049F000BA48001D046824F07F4444EA056404605A
:104A000000BF00BF5846FFF79DFD00BF00BF81E01B
:104A100043E000BF00BFFFF791FD834600BF00BF2A
:104A2000AE480830046824F0FF042C43046000BF43
:104A300000BF5846FFF786FD00BF00BF6AE000BF19
:104A400000BFFFF77BFD834600BF00BFA3480830CF
:104A5000046824F47F0444EA0544046000BF00BFF6
:104A60005846FFF76FFD00BF00BF53E000BF00BF17
:104A7000FFF764FD834600BF00BF98480830046814
:104A800024F07F4444EA0564046000BF00BF584638
:104A9000FFF758FD00BF00BF3CE04FF0E02040684A
:104AA000401C102101EB401000F0FF094E4530DAA8
:104AB000A6F11000C11700EB9171C1F38707C11770
:104AC00000EB91718910A0EB810101F0FF0800BF9C
:104AD00000BFFFF733FD834600BF00BFB80000F101
:104AE000E020D0F800444FEAC801FF20884084430A
:104AF0004FEAC80105FA01F00443B80000F1E020D4
:104B0000C0F8004400BF00BF5846FFF71BFD00BFC0
:104B100000BF00BF00BFBDE8F09F2DE9F05F064673
:104B20004FF0000B102E70D2DFE806F0080F1215C0
:104B3000182A3D090A0B0C495C0D708400BF00BFA8
:104B400000BF00BF00BF664CBDE06FF00204BAE0DA
:104B50006FF00104B7E04FF0FF34B4E000BF00BFD6
:104B6000FFF7ECFC834600BF00BF5C480568ECB271
:104B700000BF00BF5846FFF7E5FC00BF00BFA2E042
:104B800000BF00BFFFF7DAFC834600BF00BF5348F9
:104B90000568C5F3072400BF00BF5846FFF7D2FCE5
:104BA00000BF00BF8FE000BF00BFFFF7C7FC834618
:104BB00000BF00BF49480568C5F3074483E000BF54
:104BC00000BFFFF7BBFC834600BF00BF4348001D8A
:104BD00005682C0E00BF00BF5846FFF7B3FC00BFAE
:104BE00000BF70E000BF00BFFFF7A8FC834600BF16
:104BF00000BF3A4808300568ECB200BF00BF584615
:104C0000FFF7A0FC00BF00BF5DE026E000BF00BFD3
:104C1000FFF794FC834600BF00BF304808300568AA
:104C2000C5F3074400BF00BF5846FFF78BFC00BF29
:104C300000BF48E000BF00BFFFF780FC834600BF15
:104C400000BF2648083005682C0E00BF00BF58463C
:104C5000FFF778FC00BF00BF35E04FF0E020406870
:104C6000401C102101EB401000F0FF0A564528DAE5
:104C7000A6F11000C11700EB9171C1F38708C117AD
:104C800000EB91718910A0EB810101F0FF0900BFD9
:104C900000BFFFF753FC834600BF00BF4FEA880008
:104CA00000F1E020D0F8005400BF00BF5846FFF7E5
:104CB00049FC00BF00BF4FEAC90025FA00F0C4B2AA
:104CC00000E0074C00BF00BF002C04DB2046FFF7CC
:104CD00048FC07463C0E2046BDE8F09F18ED00E07A
:104CE0000080FFFF10B58A48006810B1884800684E
:104CF000804710BD874A1168002002E0002204C1ED
:104D0000401C854A12689042F8D3824A1268824B4E
:104D10001B6802EB8302121F804B1A60704710B5AC
:104D20007F48006810B17E480068804710BD10B50C
:104D300004467C48006818B120467A4909688847CB
:104D400010BD10B504467848006818B12046764971
:104D50000968884710BD10B504467448006818B14A
:104D6000204672490968884710BDF0B50446DDE960
:104D7000055602EB85004FF0807C071F3846C7F8C8
:104D800000C0071F38463C60DFF8A4C1071F384643
:104D9000C7F800C04FF0123C071F3846C7F800C0E4
:104DA0004FF0033C071F3846C7F800C04FF0023CE5
:104DB000071F3846C7F800C0071F38463B60071F6B
:104DC000384639604FF0113C071F3846C7F800C01D
:104DD0004FF0103C071F3846C7F800C04FF0093CA1
:104DE000071F3846C7F800C04FF0083C071F384679
:104DF000C7F800C04FF0073C071F3846C7F800C08F
:104E00004FF0063C071F3846C7F800C04FF0053C7E
:104E1000071F3846C7F800C04FF0043C071F38464C
:104E2000C7F800C0F0BD10B54248006810B1414855
:104E300000688047FBF7EEFE04463F4800683F49A4
:104E40000968884215D03C480068D0F89800201ABC
:104E500039490968C1F8940037480068D0F89C00C7
:104E600035490968D1F89410084433490968C1F8F4
:104E70009C0032480068C0F898402F480068D0F87D
:104E8000B4002F490968884205D22D4800682A4994
:104E90000968C1F8B40000202949086010BD10B5A8
:104EA0002848006810B127480068804710BD10B539
:104EB000002400BF00BFFFF741FB044600BF00BF56
:104EC00021480078401C2049087000BF00BF2046E0
:104ED000FFF738FB00BF00BF04F0D4FC00F02BF953
:104EE00010BD01464A1E4FF0E0235A61174A106870
:104EF00020F07F4000BF10601A46126942F00502A0
:104F00001A611A46126942F002021A6170470000E3
:104F10004000002088B800088CB800082C00002051
:104F20004400002034000020380000203C00002015
:104F30002791000848000020E0000020E400002045
:104F4000840000204C0000205400002020ED00E0F0
:104F500070470000002400BF19E000BF00BFFFF74A
:104F6000EDFA044600BF00BFF8480068401CF7494E
:104F70000860F7480068401CF549086000BF00BFA2
:104F80002046FFF7DFFA00BF00BFFFF7ABFEE4E704
:104F900010B58AB004460020EC4908600B200021BF
:104FA0000591CDE9070406910846EA490968EA4AED
:104FB0001268EA4B1B68CDE90132CDE903100B20E2
:104FC0000023AFF26F02E6A10090EA4803F003F974
:104FD0000AB010BD00210AE001EB4102E64B03EBF1
:104FE000820000220281026042604A1CD1B20C2978
:104FF000F2D3704770B50446FFF77CFE0020DF490E
:105000000870DF490870DF490870DF490860DF4930
:105010000860DF490870DF490870DF490870DF4920
:105020000860DF490860DF490860DF490870DF4831
:1050300000680A21B0FBF1F0DD490860DD48006836
:1050400058B1DD48056845B1DA48066803E0761EC8
:10505000002028602D1D002EF9D10020D7490860BE
:10506000D7490860D7490860D7490860D749086020
:10507000D7490860D7490860D749087001F028FF70
:10508000FFF7A8FF204601F078FA208800B170BD34
:10509000204601F08EFB208800B1F8E7204601F0A1
:1050A00097FB208800B1F2E7204601F0FFFE208840
:1050B00000B1ECE7204602F0D2F9208800B1E6E723
:1050C000204602F0A2FC208800B1E0E7204604F070
:1050D00021F8208800B1DAE72046FFF759FF208841
:1050E00000B1D4E7204604F038F9208800B1CEE7BB
:1050F000204602F00CFF208800B1C8E7204604F0EB
:10510000F0FE208800B1C2E700F0F2FDFFF720FFBB
:1051100000BFBCE79A480078012800D07047974844
:105120000078FA2800DBF9E794480078401C93499E
:10513000087000BFF2E710B50024914800780128FC
:1051400000D010BD00BFFFF7F9F9044600BF8B483F
:10515000007828B900BF2046FFF7F4F900BFF0E758
:1051600086480078401E8549087008460078002867
:1051700005DD00BF2046FFF7E5F900BFE1E7814804
:105180000078002805DD00BF2046FFF7DBF900BFEF
:10519000D7E701F0A7FE7F4908700846007800EBCA
:1051A0004000754951F820007849086008460068B9
:1051B00075490968884205D100BF2046FFF7C2F94A
:1051C00000BFBEE771480068D0F89000401C6F49EE
:1051D0000968C1F8900081480068401C7F49086058
:1051E0004FF080507E49086000BF2046FFF7AAF9C3
:1051F00000BF00BFA5E710B5002460480078002874
:1052000000DD10BD5F480078002800DDF9E700BF31
:10521000FFF794F9044600BF01F064FE5D49087091
:105220000846007800EB4000534951F820005749E8
:1052300008600846006854490968884205D100BFE3
:105240002046FFF77FF900BFDBE750480068D0F841
:105250009000401C4D490968C1F890005F48006803
:10526000401C5E4908604FF080505D49086000BFF7
:105270002046FFF767F900BF00BFC2E710B54148FD
:105280000078012803D1FBF7C5FC4449086010BD34
:1052900070B50446002539480078002803DD46F63D
:1052A0006250208070BD36480078012803D045F652
:1052B00089602080F6E733480078FA2803DB45F25E
:1052C00009202080EEE700BF00BFFFF737F9054651
:1052D00000BF00BF2B480078401C2A490870FFF728
:1052E000CDFF00BF00BF2846FFF72CF900BF00BF6D
:1052F0000020208000BFD5E710B52248007880B993
:10530000FBF788FC25490968441A25480068A04233
:1053100001D22348046023480068A04201D22148FA
:10532000046010BD70B504460025144800780028BC
:1053300003DD46F66550208070BD114800780128D5
:1053400050D045F689602080F6E70000500000202C
:10535000A000002064B8000860B800085CB800082D
:1053600075432F4F532D4949492049646C6520549A
:1053700061736B00E0390020B03A00205400002037
:105380005500002088000020E0000020E4000020FC
:105390006E0000206F000020700000207C000020C4
:1053A000800000208400002090000020BCB800088D
:1053B0008C0000208CB8000888B800083400002059
:1053C000380000203C000020400000204400002065
:1053D000480000204C000020BE000020B400002047
:1053E00004ED00E0F948007818B946F664502080D2
:1053F000A2E700BF00BFFFF7A1F8054600BF00BF4E
:10540000F2480078401EF1490870084600780028EC
:105410000ADD00BF00BF2846FFF794F800BF00BFB9
:1054200046F66350208087E7FFF766FF00BF00BFA6
:105430002846FFF787F800BF00BFFFF7DCFE00201B
:10544000208000BF78E72DE9F04105460C4616465E
:10545000002700BF00BFFFF771F8074600BF00BF7D
:10546000012D03D00020DA49087002E00120D8495C
:10547000087014B1D748046006E0D74800680A21D4
:10548000B0FBF1F0D349086000BF00BF3846FFF71A
:1054900059F800BF00BF00203080BDE8F08110B592
:1054A00001460C8924B1012C03D0022C0CD101E05F
:1054B00000BF14E008684A6802610024C4601461F7
:1054C000D0600A6048600AE008684A68C36800243F
:1054D0001C61C4600261D0600B60486000BF00BF07
:1054E00010BD2DE9F04104460027BC480078002893
:1054F00004DD48F2D1402080BDE8F081B348007857
:10550000002803DD46F663502080F5E7B0480078B8
:10551000012803D046F67B102080EDE700BF00BFD6
:10552000FFF70CF8074600BF00BFAD48007800EB5E
:105530004000AC4901EB8006308902280ADA00BF3E
:1055400000BF3846FEF7FEFF00BF00BF46F67A10E8
:105550002080D1E73046FFF7A2FF3568686D18B9A3
:105560009C480068A86501E0686DA86500BF00BFA1
:105570003846FEF7E7FF00BF00BFFFF73CFE002004
:10558000208000BFB8E710B5044697480078E8B916
:1055900001F0A8FC95490870084600789049087009
:1055A0009248007800EB40008E4951F82000904965
:1055B0000860084600688F49086001208A49087021
:1055C00005F0EAFF43F69920208002E045F68A6064
:1055D000208010BD01460020088047F25D607047C2
:1055E00030B548B14568C1F8C05000F108042268E0
:1055F00093681D6AC56113E091F83450022D02D002
:10560000072D08D103E07CA5C1F8C05007E07CA5B8
:10561000C1F8C05003E07DA5C1F8C05000BF00BF75
:1056200030BDF0B58E6896F8375007893FB901272D
:10563000078100274F600F600160416023E0078908
:105640007F1C0781026806E0946894F83770AF42C7
:1056500000DD02E05268002AF6D100BF32B900270F
:105660004F6043680B60596041600CE017682FB9C8
:10567000116000270F604A60016004E013680B604E
:105680004A6059601160F0BD10B5C2870163002304
:105690000AE000244C600C600C614C610C83CC610E
:1056A000886020315C1CA3B29342F2DB10BD2DE96F
:1056B000F041054695F8370000EB4000494901EB01
:1056C00080042F69EE6887B946B9002020812060E8
:1056D000606095F8370001F027FC0EE02089401E3D
:1056E000208100203061266007E02089401E208153
:1056F000FE600EB9676000E0376100202861E86055
:10570000BDE8F08138B504460D4685B16B460222EE
:105710002946204603F062FEBDF8000018B90320B8
:1057200084F8360006E0022084F8360002E0022009
:1057300084F836002046FFF7BAFF38BD2DE9F04166
:1057400005460C4616461F462A48006880F8346015
:1057500000202849096881F8350039462548006845
:10576000FFF7D0FF6CB104F10808EC600122294674
:1057700020480068FFF788FF29464046FFF751FFA1
:1057800006E000201B490968C8871A4909680863B0
:10579000184801682046FFF723FFBDE8F08110B5E7
:1057A0000489012C03D100240460446034E00C68B7
:1057B00024B94A680024146002602DE04C6824B9C2
:1057C0000B6800245C60436026E021E08800002034
:1057D000900000208C000020BCB80008540000207D
:1057E0006E000020B03A0020550000206F0000201D
:1057F000E4000020E00000205461736B20510000A1
:105800005461736B2053656D0000000020000000A0
:105810000B684A685A6013600489641E048100247E
:105820004C600C6010BD2DE9F0410446256BE68FFD
:105830000AE0D5F80C8008F1080729463846FFF73A
:10584000AEFF2035701E86B2002EF2DC0020E0870D
:105850002063BDE8F08130B50346086BCC8F08E0CB
:10586000C5689D4202D10361C26104E02030651E1B
:10587000ACB2002CF4DC00BF30BD10B590F837306E
:1058800003EB4303FE4C04EB83010B893BB901237B
:105890000B810023C36003610860486009E00B8945
:1058A0005B1C0B810B68C360002303610A681061F5
:1058B000086010BD10B590F8373003EB4303F04C8F
:1058C00004EB83010B893BB901230B810023C360E7
:1058D00003610860486008E00B895B1C0B810023B2
:1058E000C3604A680261D060486010BD10B50446CC
:1058F00094F8370001F008FB94F83700E149097883
:10590000884203D12046FFF7D5FF02E02046FFF78B
:10591000B4FF10BD10B50446204603F023FC94F8F4
:10592000360000F0040010B92046FFF7DFFF10BD7D
:1059300070B505460C46164694F83600082847D23E
:10594000DFE800F0040508090607272800BF00BFAC
:1059500000BF3EE000BF94F83400032804D1324673
:1059600021462846FFF777FF0020E065A4F8600095
:10597000266415B12046FFF756FF2046FFF7CAFF01
:1059800000203434A07001206070002004F8340935
:105990001FE000BF94F83400032804D132462146AA
:1059A0002846FFF758FF0020E065A4F86000266451
:1059B00015B12046FFF737FF204603F0D3FB042044
:1059C0003434A07001206070002004F8340900E035
:1059D00000BF00BF70BD30B5AFF2D015C1F8C050E8
:1059E00000F1080422681AB193681D6AC56102E0DB
:1059F000AFF2E815C56130BD2DE9F04304460F460E
:105A000084F83770256BB4F83E8013E0D5F80C901D
:105A100009F108063089012807D929463046FFF7E1
:105A2000BEFE29463046FFF7FCFD2035A8F10100F7
:105A30001FFA80F8B8F1000FE8D1BDE8F08300212B
:105A4000016041600181704703895B1C0381036829
:105A50004B6000230B60026802B111600160038992
:105A6000012B00D14160704730B50346086BCC8FE5
:105A700008E0C5689D4202D10361C26104E02030A4
:105A8000651EACB2002CF4DC00BF30BD70B506461C
:105A90000C46154694F83600082845D2DFE800F099
:105AA000040508090607262700BF00BF00BF3CE029
:105AB00000BF94F83400032804D12A46214630461A
:105AC000FFF7D2FF0020E065A4F8600025642046BF
:105AD000FFF7A9FE2046FFF71DFF00203434A07019
